:100000000C948C000C9427100C94AD000C949C1054
:100010000C94BB100C94AD000C94AD000C94AD008E
:100020000C94AD000C94AD000C94AD000C94AD009C
:100030000C94AD000C94AD000C94AD000C94AD008C
:100040000C94AD000C94C40F0C94AD000C94AD0056
:100050000C94AD000C949F0F0C94AD000C94AD006B
:100060000C94AD000C94D2100C94AD000C94AD0027
:100070000C94AD000C94EF100C94AD000C94AD00FA
:100080000C94AD000C94AD000C94AD000C94AD003C
:100090000C94AD000C94AD000C94AD000C94AD002C
:1000A0000C94AD000C94AD000C94AD000C94AD001C
:1000B0000C94AD000C94AD000C94AD000C94AD000C
:1000C0000C94AD000C94AD000C94AD000C94E510B4
:1000D0000C94AD000C94AD000C94AD000C94AD00EC
:1000E0000C94AD000C947A0E0C94B8050C9400029C
:1000F0000C94B3060C94AF000C94C90A0C94E50759
:100100000C94FE0B0C94E6000C949A090C94330D9D
:100110000C94B6030C94A10411241FBECFEFD1E2BE
:10012000DEBFCDBF00E00CBF16E0A0E0B2E0E6E528
:10013000FDE200E00BBF02C007900D92A634B107AC
:10014000D9F727E0A6E4B6E001C01D92A839B207AE
:10015000E1F70E9495120C94A9160C94000088E116
:1001600098E00FB6F894A895809360000FBE909326
:100170006000FFCF87FF1EC0749A9091020183FF39
:100180001BC09860909302019091020182FF16C0FB
:100190009061909302019091020181FF11C09062E1
:1001A0009093020180FF0EC08091020180648093D1
:1001B000020108957498E1CF977FE4CF9F7EE9CF45
:1001C0009F7DEECF809102018F7BF1CFEF92FF9266
:1001D0000F931F93CF93DF93CDB7DEB760970FB622
:1001E000F894DEBF0FBECDBF80910701826080937F
:1001F0000701809108018260809308012FEF81EE52
:1002000094E0215080409040E1F700C00000FE01E2
:10021000319680E1DF011D928A95E9F781E0888BB4
:100220008F017E01B1E1EB0EF11CF80181918F018C
:100230000E945F120E151F05C1F7809108018D7F86
:100240008093080160960FB6F894DEBF0FBECDBF55
:10025000DF91CF911F910F91FF90EF9008950F9331
:100260001F93CF93DF93FC0120813181E8E7F3E016
:10027000D0E0C0E0408151814217530719F5428117
:10028000538146175707F1F48C01FE01EE0FFF1F53
:10029000EE0FFF1FEC5EFC4F0280F381E02D1995FD
:1002A00086E08C9FF0018D9FF00D1124E858FC4FE3
:1002B00084819581F80191838083DF91CF911F9193
:1002C0000F91089521963696C931D10599F6F5CF4B
:1002D000CF92DF92EF92FF9281B1806F81B982B1AC
:1002E000806F82B984B1806C84B98DB188638DB917
:1002F0008EB188638EB99D9AA59A80910101886715
:1003000080930101809102018867809302018091AE
:10031000070181608093070181B18F6081B9109AD4
:100320000E943E110E9412120E944F120E947212ED
:100330000E94C3110E94D1110E94821183B7817F54
:1003400083BF78948EE094E00E948912C0904E069C
:10035000D0904F06E0905006F090510686E490E071
:100360002091300127FF28C020913601973019F5E0
:100370002133F1F48FE39CE90197F1F700C000000D
:100380008AE194E00E9489128FE39CE90197F1F7DA
:1003900000C0000088E294E00E94891280E50E947B
:1003A000251286E4FF90EF90DF90CF900C942512F9
:1003B000203309F480E59F5F40914E0650914F062F
:1003C00060915006709151064C195D096E097F09C4
:1003D000453651056105710518F2E1CFE9E6F0E017
:1003E000808180638083EA9A0895EA980895E9E617
:1003F000F0E08081806C8083EB9A0895EB980895FB
:100400004F925F926F927F928F929F92AF92BF9224
:10041000EF92FF920F931F93CF93DF9300D000D002
:100420001F92CDB7DEB787B19091360221E030E060
:10043000A90101C0440F9A95EAF7842B87B94FEFC1
:1004400069E678E1415060407040E1F700C000008B
:1004500047B180913002F90102C0EE0FFF1F8A956B
:10046000E2F7CF019091330201C0220F9A95EAF78B
:10047000822B842B87B90E946A110E945E110E9410
:10048000F7010E94E01180904E0690904F06A090D8
:100490005006B0905106BE016F5F7F4F7B0187E031
:1004A000FB0111928A95E9F710E060E050E040E02E
:1004B00073E080914906882309F46CC0CA01815514
:1004C000910980349105F8F4679FF001112430E020
:1004D00020E0D901A154B94F8C91DF01A20FB31FC5
:1004E000AC5ABD4F9C91891B990B97FF03C0919506
:1004F00081959109C3970CF01F5F2F5F3F4F233009
:10050000310539F76F5F4F5F5F4F10924906809159
:10051000C3069091C406A091C506B091C606893362
:10052000914CA140B10550F14090C3065090C406D3
:100530006090C5067090C6068091920790919307CF
:10054000A0919407B0919507840D951DA61DB71D28
:100550008093920790939307A0939407B093950785
:100560002091C8063091C90680919607909197070F
:10057000820F931F90939707809396071092C3065C
:100580001092C4061092C5061092C6061092C906B3
:100590001092C80680914E0690914F06A091500689
:1005A000B091510688199909AA09BB09813D974064
:1005B000A105B10508F47DCF0E9464110E94E611E7
:1005C0000E94FE01112311F081E08983609192075E
:1005D00070919307809194079091950720919607C9
:1005E0003091970750E040E00E94BE12CA01B90165
:1005F0000E940F130E947B130E94E0128B012F9A1E
:100600004FEF69E678E1415060407040E1F700C08B
:100610000000809112020E94BA008FEF99E6E8E193
:1006200081509040E040E1F700C000000E94881136
:10063000813D97402CF4083928E0120708F07FC06C
:100640001B82809106020E94BA004FEF69E678E1B2
:10065000415060407040E1F700C000000E948811E6
:1006600089349D402CF40031FEE01F0708F06AC079
:100670001C82809109020E94BA002FEF49E668E1CE
:10068000215040406040E1F700C000000E94881106
:10069000853F91402CF40C3B82E0180708F055C0D0
:1006A0001D8280910C020E94BA009FEFE9E6F8E1FA
:1006B0009150E040F040E1F700C000000E94881136
:1006C000813D97402CF4083948E0140708F040C0F9
:1006D0001E8280910F020E94BA006FEF79E688E1D6
:1006E000615070408040E1F700C000000E94881116
:1006F000813D97401CF40839184068F51F822F98F7
:10070000F70180E09191992349F18F5C0E942512B5
:1007100086E427960FB6F894DEBF0FBECDBFDF91FB
:10072000CF911F910F91FF90EF90BF90AF909F904E
:100730008F907F906F905F904F900C94251281E086
:100740008B837FCF81E08C8394CF81E08D83A9CF91
:1007500081E08E83BECF81E08F83D1CF8F5F8730E2
:1007600089F687E30E94251280E5D3CF8F929F926E
:10077000AF92BF92DF92EF92FF920F931F93CF93AE
:10078000DF9388B19091360221E030E001C0220F62
:100790009A95EAF7822B88B980904E0690904F0682
:1007A000A0905006B09051060E94EE010E94F70101
:1007B0000E94E0112F9AC0E0D12CD0E004E314E0B5
:1007C0008BE5E82E86E0F82E809149068823D9F043
:1007D0008091BF062C2F30E090E0821B930B8B356D
:1007E000910544F48091BF0690E0821B930B863AFA
:1007F0009F4F0CF4DF5FC091BF068091C0068091CF
:10080000C1061092490680914706882371F18091B4
:100810004E0690914F06A0915006B09151068091DE
:100820004E0690914F06A0915006B091510688193E
:100830009909AA09BB09BF93AF939F938F931F9305
:100840000F93FF92EF920E94D3138BE596E00E94E4
:100850002C12D394109247066DB77EB7685F7F4F16
:100860000FB6F8947EBF0FBE6DBF80914E0690917B
:100870004F06A0915006B091510688199909AA090E
:10088000BB0989329342A105B10508F49DCF80913F
:1008900015020E94BA008FEF99E628E1815090403E
:1008A0002040E1F700C000000E9488112F980E94AC
:1008B000E6110E94FE010E94F50148B180913002CC
:1008C00021E030E0B90102C0660F771F8A95E2F798
:1008D000CB019091330201C0220F9A95EAF7822B47
:1008E000842B88B97FEF8DE399E47150804090406C
:1008F000E1F700C000001F92DF921F92DF9380E4B7
:1009000094E09F938F938BE596E09F938F930E9443
:10091000D3136DB77EB7685F7F4F0FB6F8947EBF75
:100920000FBE6DBF8BE596E0DF91CF911F910F91C8
:10093000FF90EF90DF90BF90AF909F908F900C94BE
:100940002C12CF92DF92EF92FF920F931F93CF93CF
:10095000DF9348B18091360221E030E0B90102C056
:10096000660F771F8A95E2F7CB018095842388B9BB
:100970007FEF89E698E1715080409040E1F700C038
:10098000000048B180913002B90102C0660F771FA4
:100990008A95E2F7CB0190913302B90101C0660F4D
:1009A0009A95EAF7862B8095842388B97FEF87EAAA
:1009B00091E6715080409040E1F700C000008091C6
:1009C000070190914E0201C0220F9A95EAF7282B59
:1009D0002093070180910701826080930701809135
:1009E0000801826080930801C0904E06D0904F06A7
:1009F000E0905006F09051060E94F7010E94E0112D
:100A00000E94EC111092C3061092C4061092C50603
:100A10001092C6061092C9061092C8060E946A116A
:100A20000E945E1180916900836080936900E89A5A
:100A3000C0E000E010E041E0D0E08091490688236A
:100A4000A1F08091C106811B990B97FF03C091957E
:100A500081959109C3970CF0DF5F8091BF0680916B
:100A6000C0061091C1061092490680915506882350
:100A7000D9F030E020E090E080E0F901EE0FFF1FB8
:100A8000E653F94F51815081850F911D2F5F3F4FE4
:100A90002436310591F780549F4101E0843893401A
:100AA00008F400E01092550680914E0690914F0692
:100AB000A0915006B09151068C199D09AE09BF094D
:100AC000853F9140A105B105D0F04423C1F060916C
:100AD000C3067091C4068091C5069091C606209108
:100AE000C8063091C90650E040E00E94BE12C1E045
:100AF0002A3031054105510508F4C0E040E08091FD
:100B00004E0690914F06A0915006B09151068C1957
:100B10009D09AE09BF0989389341A105B10508F4C3
:100B20008CCF0E9464110E94FE010E94E6110E9477
:100B3000F211E898D63090F0011116C0C11116C01C
:100B400083E30E94251280E5DF91CF911F910F91E1
:100B5000FF90EF90DF90CF900C94251280E08F5C97
:100B60000E94251286E4F0CF81E0F9CF82E0F7CF32
:100B7000BF92CF92DF92EF92FF920F931F93CF938A
:100B8000DF938091070190914B0221E030E001C09A
:100B9000220F9A95EAF7822B80930701C0904E06A8
:100BA000D0904F06E0905006F09051060E94F70159
:100BB0000E94E0110E94EC110E946A110E945E11D5
:100BC00080916900836080936900E89AC0E0B12C4D
:100BD00000E011E041E0D0E0809149068823A1F0D7
:100BE0008091C006801B990B97FF03C0919581955A
:100BF0009109C3970CF0DF5F8091BF060091C0069A
:100C00008091C10610924906809155068823E1F033
:100C100030E020E090E080E0F901EE0FFF1FE653A6
:100C2000F94F51815081850F911D2F5F3F4F243621
:100C3000310591F780549F41BB24B394843893408D
:100C400008F4B12C1092550680914E0690914F06F3
:100C5000A0915006B09151068C199D09AE09BF09AB
:100C60008D3D9540A105B10578F0112369F01092F2
:100C7000C3061092C4061092C5061092C6061092C2
:100C8000C9061092C80610E080914E0690914F065A
:100C9000A0915006B09151068C199D09AE09BF096B
:100CA000813D9740A105B105F8F04423E9F060913A
:100CB000C3067091C4068091C5069091C606209126
:100CC000C8063091C90650E040E00E94BE12CA0139
:100CD000B9010E940F130E947B130E94E012C1E031
:100CE000693208F0C0E040E080914E0690914F06D6
:100CF000A0915006B09151068C199D09AE09BF090B
:100D000089389341A105B10508F466CF0E946411AA
:100D10000E94E6110E94FE010E94F211E898809163
:100D200008018D7F80930801D63098F0B11017C06C
:100D3000C11117C083E30E94251280E5DF91CF9196
:100D40001F910F91FF90EF90DF90CF90BF900C9488
:100D5000251280E08F5C0E94251286E4EFCF81E0AF
:100D6000F9CF82E0F7CF4F925F926F927F928F928E
:100D70009F92AF92BF92EF92FF920F931F93CF93E8
:100D8000DF93809107019091510221E030E001C092
:100D9000220F9A95EAF7822B8093070140904E0626
:100DA00050904F0660905006709051060E94EE01E0
:100DB0000E94F7010E94E0110E946A110E945E11D8
:100DC000E12C812C912C5401F12C00E010E040E04A
:100DD000D0E0C0E0809149068823E1F02091BF0671
:100DE0008E2D90E030E0281B390B2B35310544F473
:100DF0002091BF0630E0281B390B263A3F4F0CF4F8
:100E00001F5FE090BF068091C0068091C1064F5FD2
:100E100010924906809147068823F9F01092470600
:100E200080914E0690914F06A0915006B0915106C8
:100E300084199509A609B70985319540A105B10521
:100E400060F0013009F492C080904E0690904F06F9
:100E5000A0905006B090510601E04A3031F5609103
:100E6000C3067091C4068091C5069091C606209174
:100E7000C8063091C90650E040E00E94BE12CA0187
:100E8000B9010E940F130E947B130E94E012EB0134
:100E90001092C3061092C4061092C5061092C606A0
:100EA0001092C9061092C80640E080914E069091BB
:100EB0004F06A0915006B091510684199509A609D4
:100EC000B70989329342A105B10508F483CF48B12F
:100ED0008091360221E030E0B90102C0660F771F31
:100EE0008A95E2F7CB0190913002B90101C0660FFB
:100EF0009A95EAF7862B842B90913302A90101C0C1
:100F0000440F9A95EAF7842B88B980910801909153
:100F1000510201C0220F9A95EAF7282B209308016D
:100F20000E9464110E94E6110E94FE010E94F501D8
:100F30001251123008F03FC079E0F71242C06497B6
:100F400008F041C083E30E94251280E5DF91CF9134
:100F50001F910F91FF90EF90BF90AF909F908F9057
:100F60007F906F905F904F900C94251280914E0669
:100F700090914F06A0915006B09151068819990999
:100F8000AA09BB09803D9240A105B10590F480916A
:100F90004E0690914F06A0915006B09151068819C7
:100FA0009909AA09BB098F369240A105B10508F03D
:100FB000F39400E052CF80E08F5C0E94251286E41B
:100FC000C5CF81E0F9CF82E0F7CF2F923F924F92C9
:100FD0005F926F927F928F929F92AF92BF92CF92C9
:100FE000DF92EF92FF920F931F93CF93DF9300D086
:100FF00000D01F921F92CDB7DEB748B18091360264
:1010000021E030E0B90102C0660F771F8A95E2F750
:10101000CB018095842388B97FEF89E698E17150F0
:1010200080409040E1F700C0000048B1809130025C
:10103000D90102C0AA0FBB1F8A95E2F7CD0190919A
:10104000330201C0220F9A95EAF7822B8095842300
:1010500088B9BFEF29E638E1B15020403040E1F7D0
:1010600000C0000082B18F7C82B94FEF59E668E181
:10107000415050406040E1F700C000000E94F7017D
:101080000E94E0110E946A110E945E1180914E063A
:1010900090914F06A0915006B09151068B839C838E
:1010A000AD83BE8340904E0650904F066090500630
:1010B00070905106198200E01A8210E0312C212C28
:1010C000C12CD12C760118861F8220E08091490620
:1010D0008823D1F08091BF06A9818A1B990B97FFC5
:1010E00003C09195819591098B3591051CF0BF81C5
:1010F000BF5FBF833091BF0639838091C006809166
:10110000C1062F5F109249062A30A9F56091C306E7
:101110007091C4068091C5069091C6062091C806BC
:101120003091C90650E040E00E94BE12CA01B901E8
:101130000E940F130E947B130E94E0124B01CB010F
:1011400082199309853191050CF49BC04A814111A4
:1011500004C00E94EE0151E05A831092C30610921F
:10116000C4061092C5061092C6061092C9061092C7
:10117000C806140120E080914706882381F0788515
:10118000713009F491C0C0904E06D0904F06E090A7
:101190005006F090510681E08887109247068091B2
:1011A0004E0690914F06A0915006B09151068419B9
:1011B0009509A609B709893B9442A105B10508F430
:1011C00098C0002309F495C08D9882B1806382B9DC
:1011D0006FEF74E38CE0615070408040E1F700C035
:1011E000000048B18091360221E030E0D90102C010
:1011F000AA0FBB1F8A95E2F7CD0190913002B90189
:1012000001C0660F9A95EAF7862B842B90913302E2
:1012100001C0220F9A95EAF7822B88B90E946411C7
:101220000E94E6110E94FE010E94F501BF81B651A5
:10123000B23008F075C01A3009F078C02AE02216E2
:10124000310408F075C083E30E94251280E52896DA
:101250000FB6F894DEBF0FBECDBFDF91CF911F91C7
:101260000F91FF90EF90DF90CF90BF90AF909F9045
:101270008F907F906F905F904F903F902F900C9445
:101280002512893E9F4F0CF068CF011166CF409028
:101290004E0650904F0660905006709051068DE2B9
:1012A0000E94251201E059CF80914E0690914F0681
:1012B000A0915006B09151068C199D09AE09BF0945
:1012C000803D9240A105B10590F480914E06909129
:1012D0004F06A0915006B09151068C199D09AE0998
:1012E000BF098F369240A105B10508F01F5F18862F
:1012F00054CF80914E0690914F06A0915006B09128
:1013000051064B815C816D817E81841B950BA60B00
:10131000B70B893A9146A105B10508F4D7CE55CF50
:1013200080E08F5C0E94251286E491CF81E0F9CFA6
:1013300082E0F7CF8F929F92AF92BF92CF92DF92CF
:10134000EF92FF92CF93DF9348B18091360221E074
:1013500030E0B90102C0660F771F8A95E2F7CB0132
:101360008095842388B97FEF89E698E171508040A9
:101370009040E1F700C0000048B180913002B9010F
:1013800002C0660F771F8A95E2F7CB019091330276
:10139000B90101C0660F9A95EAF7862B80958423E0
:1013A00088B97FEF87EA91E6715080409040E1F77D
:1013B00000C0000087B190913F0201C0220F9A95B2
:1013C000EAF7282B27B90E94EE010E94F7010E943C
:1013D000E01180904E0690904F06A0905006B0907D
:1013E000510680E0D0E0C12CD12C760120E0C0E095
:1013F000909149069923D1F04091BF0690E050E0CA
:10140000481B590B4B35510544F44091BF0650E041
:10141000481B590B463A5F4F0CF4CF5F8091BF06D3
:101420009091C0069091C10610924906909147068E
:101430009923F9F040914E0650914F066091500665
:1014400070915106481959096A097B09493057407A
:101450006105710560F0213009F46EC0C0904E0640
:10146000D0904F06E0905006F090510621E0109287
:10147000470640914E0650914F066091500670917C
:101480005106481959096A097B09413059416105DA
:10149000710508F4ADCF0E94E6110E94FE010E9482
:1014A000F5012F9A809103020E94BA002FEF49E6BE
:1014B00068E1215040406040E1F700C000000E9418
:1014C00088112F9848B18091360221E030E0B901AF
:1014D00002C0660F771F8A95E2F7CB019091300228
:1014E000B90101C0660F9A95EAF7862B842B90917B
:1014F0003302A90101C0440F9A95EAF7842B909119
:101500003F0201C0220F9A95EAF7822B88B9C85092
:10151000C230B8F5D430D9F583E30E94251280E5B6
:10152000DF91CF91FF90EF90DF90CF90BF90AF9081
:101530009F908F900C94251240914E0650914F062B
:1015400060915006709151064C195D096E097F0932
:101550004E3E52406105710590F440914E06509107
:101560004F0660915006709151064C195D096E0945
:101570007F09483652406105710508F0DF5F20E0C1
:1015800076CF80E08F5C0E94251286E4C9CF81E08F
:10159000F9CF8F929F92AF92BF92CF92DF92EF924C
:1015A000FF92CF93DF9348B18091360221E030E083
:1015B000B90102C0660F771F8A95E2F7CB018095CB
:1015C000842388B97FEF89E698E17150804090408C
:1015D000E1F700C0000048B180913002B90102C0BB
:1015E000660F771F8A95E2F7CB0190913302B9011C
:1015F00001C0660F9A95EAF7862B8095842388B9F7
:101600007FEF87EA91E6715080409040E1F700C09B
:101610000000809107019091420201C0220F9A952B
:10162000EAF7282B209307010E94EE010E94F701A0
:101630000E94E01180904E0690904F06A0905006B8
:10164000B090510680E0D0E0C12CD12C760120E092
:10165000C0E0909149069923D1F04091BF0690E0F7
:1016600050E0481B590B4B35510544F44091BF06DF
:1016700050E0481B590B463A5F4F0CF4CF5F809106
:10168000BF069091C0069091C106109249069091B4
:1016900047069923F9F040914E0650914F0660910C
:1016A000500670915106481959096A097B09413B56
:1016B00054406105710560F0213009F472C0C0909A
:1016C0004E06D0904F06E0905006F090510621E073
:1016D0001092470640914E0650914F066091500679
:1016E00070915106481959096A097B09413A5F40CE
:1016F0006105710508F4ADCF0E94E6110E94FE015C
:101700000E94F5012F9A809103020E94BA002FEFE8
:1017100049E668E1215040406040E1F700C0000028
:101720000E9488112F9848B18091360221E030E064
:10173000B90102C0660F771F8A95E2F7CB0190913D
:101740003002B90101C0660F9A95EAF7862B842B07
:1017500090913302A90101C0440F9A95EAF7842BB6
:1017600088B9809108019091420201C0220F9A9598
:10177000EAF7282B20930801C450C230B8F5D230C4
:10178000D9F583E30E94251280E5DF91CF91FF9088
:10179000EF90DF90CF90BF90AF909F908F900C9480
:1017A000251240914E0650914F066091500670915F
:1017B00051064C195D096E097F094E3E5240610584
:1017C000710590F440914E0650914F06609150067D
:1017D000709151064C195D096E097F0948365240D7
:1017E0006105710508F0DF5F20E072CF80E08F5C5B
:1017F0000E94251286E4C9CF81E0F9CF8F929F9293
:10180000AF92BF92CF92DF92EF92FF92CF93DF938E
:1018100048B18091360221E030E0B90102C0660F84
:10182000771F8A95E2F7CB018095842388B97FEFF3
:1018300089E698E1715080409040E1F700C00000D7
:1018400048B180913002B90102C0660F771F8A95B6
:10185000E2F7CB0190913302B90101C0660F9A956E
:10186000EAF7862B8095842388B97FEF87EA91E693
:10187000715080409040E1F700C000008091070166
:101880009091450201C0220F9A95EAF7282B2093E8
:1018900007010E94EE010E94F7010E94E011809072
:1018A0004E0690904F06A0905006B090510680E0F2
:1018B000D0E0C12CD12C760120E0C0E09091490607
:1018C0009923D1F04091BF0690E050E0481B590B9E
:1018D0004B35510544F44091BF0650E0481B590B6D
:1018E000463A5F4F0CF4CF5F8091BF069091C006DF
:1018F0009091C10610924906909147069923F9F0FC
:1019000040914E0650914F066091500670915106DD
:10191000481959096A097B09493057406105710521
:1019200060F0213009F472C0C0904E06D0904F068E
:10193000E0905006F090510621E010924706409149
:101940004E0650914F06609150067091510648190D
:1019500059096A097B09413059416105710508F44B
:10196000ADCF0E94E6110E94FE010E94F5012F9A60
:10197000809103020E94BA002FEF49E668E12150EE
:1019800040406040E1F700C000000E9488112F989D
:1019900048B18091360221E030E0B90102C0660F03
:1019A000771F8A95E2F7CB0190913002B90101C00F
:1019B000660F9A95EAF7862B842B90913302A90142
:1019C00001C0440F9A95EAF7842B88B980910801E9
:1019D0009091450201C0220F9A95EAF7282B209397
:1019E0000801C850C230B8F5D430D9F583E30E945D
:1019F000251280E5DF91CF91FF90EF90DF90CF909F
:101A0000BF90AF909F908F900C94251240914E06FE
:101A100050914F0660915006709151064C195D0926
:101A20006E097F094E3E52406105710590F4409168
:101A30004E0650914F0660915006709151064C1918
:101A40005D096E097F09483652406105710508F04D
:101A5000DF5F20E072CF80E08F5C0E94251286E479
:101A6000C9CF81E0F9CF8F929F92AF92BF92CF9270
:101A7000DF92EF92FF92CF93DF9348B180913602CD
:101A800021E030E0B90102C0660F771F8A95E2F7C6
:101A9000CB018095842388B97FEF89E698E1715066
:101AA00080409040E1F700C0000048B180913002D2
:101AB000B90102C0660F771F8A95E2F7CB019091BA
:101AC0003302B90101C0660F9A95EAF7862B80951B
:101AD000842388B97FEF87EA91E671508040904077
:101AE000E1F700C00000809107019091480201C019
:101AF000220F9A95EAF7282B209307010E94EE0106
:101B00000E94F7010E94E01180904E0690904F06CF
:101B1000A0905006B090510680E0D0E0C12CD12CAE
:101B2000760120E0C0E0909149069923D1F04091E0
:101B3000BF0690E050E0481B590B4B35510544F46B
:101B40004091BF0650E0481B590B463A5F4F0CF4DA
:101B5000CF5F8091BF069091C0069091C106109210
:101B60004906909147069923F9F040914E0650910D
:101B70004F066091500670915106481959096A093B
:101B80007B09413B54406105710560F0213009F447
:101B900084C0C0904E06D0904F06E0905006F09062
:101BA000510621E01092470640914E0650914F0693
:101BB0006091500670915106481959096A097B09CC
:101BC000413A5F406105710508F4ADCF0E94E6110E
:101BD0000E94FE010E94F5012F9A809103020E944B
:101BE000BA002FEF49E668E1215040406040E1F73C
:101BF00000C000000E9488112F9848B12091360241
:101C000081E090E0BC0102C0660F771F2A95E2F7E1
:101C10009B0130913002BC0101C0660F3A95EAF792
:101C2000262B242B30913302AC0101C0440F3A958E
:101C3000EAF7242B28B94091080120914802BC0101
:101C400002C0660F771F2A95E2F79B0130914B0285
:101C5000BC0101C0660F3A95EAF7262B242B309180
:101C60004E0201C0880F3A95EAF7822B8093080153
:101C7000C450C230B8F5D230D9F583E30E942512A2
:101C800080E5DF91CF91FF90EF90DF90CF90BF90F4
:101C9000AF909F908F900C94251240914E065091DA
:101CA0004F0660915006709151064C195D096E09FE
:101CB0007F094E3E52406105710590F440914E06F9
:101CC00050914F0660915006709151064C195D0974
:101CD0006E097F09483652406105710508F0DF5FE3
:101CE00020E060CF80E08F5C0E94251286E4C9CF9F
:101CF00081E0F9CFCF92DF92EF92FF920F931F9383
:101D0000CF93DF9348B12091360281E090E0BC018F
:101D100002C0660F771F2A95E2F79B0120952423C6
:101D200028B97FEF29E638E1715020403040E1F7D3
:101D300000C0000048B120913002BC0102C0660F13
:101D4000771F2A95E2F79B0130913302BC0101C055
:101D5000660F3A95EAF7262B2095242328B97FEFC2
:101D600027EA31E6715020403040E1F700C0000022
:101D700047B120913902BC0102C0660F771F2A9536
:101D8000E2F79B0130913C0201C0880F3A95EAF7D7
:101D9000822B842B87B90E94EE010E94F7010E94DA
:101DA000E0110E946A110E945E11C0904E06D09010
:101DB0004F06E0905006F090510680E0C0E040E011
:101DC000D0E0909149069923D9F02091BF0690E088
:101DD00030E0281B390B2B35310544F42091BF0628
:101DE00030E0281B390B263A3F4F0CF4DF5F80911F
:101DF000BF069091C0069091C1064F5F10924906B0
:101E00004A3069F41092C3061092C4061092C506B7
:101E10001092C6061092C9061092C80640E0909132
:101E20004706992319F0CF5F1092470600914E069E
:101E300010914F0620915006309151060C191D0942
:101E40002E093F09013A1F402105310508F4B9CF99
:101E50000E94E6110E94FE010E94F5010E9473118A
:101E600048B18091360221E030E0B90102C0660F2E
:101E7000771F8A95E2F7CB0190913002B90101C03A
:101E8000660F9A95EAF7862B842B90913302A9016D
:101E900001C0440F9A95EAF7842B90913902A90169
:101EA00001C0440F9A95EAF7842B90913C0201C03F
:101EB000220F9A95EAF7822B88B96091C306709138
:101EC000C4068091C5069091C6062091C80630913F
:101ED000C90650E040E00E94BE12CA01B9010E944A
:101EE0000F130E947B130E94E012D63099F4C63083
:101EF000B9F461317105B0F483E30E94251280E5E5
:101F0000DF91CF911F910F91FF90EF90DF90CF90D5
:101F10000C94251280E08F5C0E94251286E4F0CF9D
:101F200081E0F9CF82E0F7CF81FF05C0129A80FFF0
:101F300004C0139A08951298FACF139808951F9227
:101F40000F920FB60F9211248F939F93AF93BF936D
:101F500080914E0690914F06A0915006B091510687
:101F60000196A11DB11D80934E0690934F06A0933C
:101F70005006B0935106BF91AF919F918F910F90F2
:101F80000FBE0F901F9018951F920F920FB60F92D1
:101F900011240BB60F922F933F934F935F936F9340
:101FA0007F938F939F93AF93BF93EF93FF93809112
:101FB0005206813019F580914A0690914B06809324
:101FC000BF0683E00E94940F82E080935206109235
:101FD0004B0610924A06FF91EF91BF91AF919F91EE
:101FE0008F917F916F915F914F913F912F910F90C2
:101FF0000BBE0F900FBE0F901F9018958091520648
:10200000823059F480914A0690914B068093C00625
:1020100081E00E94940F83E0D8CF809152068330F4
:1020200079F480914A0690914B068093C10680E036
:102030000E94940F81E08093520680934906C7CF97
:1020400081E08093520680E00E94940FC0CF1F92DF
:102050000F920FB60F9211240BB60F922F933F934E
:102060004F935F938F939F93EF93FF9380915806C5
:10207000813069F0823031F11092B20081E08093BA
:102080005806809169008E7F809369000CC0809112
:10209000B200809357068091690081608093690047
:1020A00082E080935806FF91EF919F918F915F910D
:1020B0004F913F912F910F900BBE0F900FBE0F903D
:1020C0001F9018958091B200809356061092B2002E
:1020D000809169008E7F8093690091E0909358060B
:1020E0008091560620915706E0915906F0915A06C4
:1020F000821BEE0FFF1FE653F94F8083E0915906D4
:10210000F0915A0680915606EE0FFF1FE653F94FE5
:1021100081832091590630915A06A9014F5F5F4F84
:1021200050935A06409359062436310508F4BBCF24
:1021300090935506E898B7CF1F920F920FB60F9263
:1021400011240BB60F928F939F93EF93FF9381E02F
:1021500080934706E9E6F0E0808190E1892780835B
:10216000FF91EF919F918F910F900BBE0F900FBE3B
:102170000F901F9018951F920F920FB60F92112477
:102180008F939F9380914A0690914B06019690936E
:102190004B0680934A069F918F910F900FBE0F9030
:1021A0001F9018951F920F920FB60F9211248F93C4
:1021B0008091C6008093C70681E0809348068F9186
:1021C0000F900FBE0F901F9018951F920F920FB691
:1021D0000F9211240F900FBE0F901F9018951F9211
:1021E0000F920FB60F9211242F934F935F936F931B
:1021F0007F938F939F93AF93BF93809179008F5775
:10220000990B97FF03C09195819591098093C20620
:102210002091C2068091C2064091C3065091C40627
:102220006091C5067091C606289FC0011124092E31
:10223000000CAA0BBB0B840F951FA61FB71F809322
:10224000C3069093C406A093C506B093C6068091BA
:10225000C8069091C90601969093C9068093C80656
:10226000BF91AF919F918F917F916F915F914F91AE
:102270002F910F900FBE0F901F901895ECE7F0E094
:10228000808180648083808180628083EAE7F0E0DF
:102290008081876080838081806280838081886084
:1022A00080838081806880830895ECE7F0E08081FE
:1022B0008260808380818E7F80830895ECE7F0E0E8
:1022C0008081836080830895EAE7F0E08081877FE2
:1022D00080830895EAE7F0E08081886080838081D0
:1022E000806480830895089580917B00806480934A
:1022F0007B0080917A0086FDFCCF809178009091E0
:1023000079000895519A599A84B1866084B90895E4
:10231000599886E090E024E630E0A901082E02C03A
:10232000559547950A94E2F740FF1DC02A9A299ACD
:102330002998019790F790E080E02BE030E041E0B1
:1023400050E01B9B09C0BA01022E02C0660F771F26
:102350000A94E2F7862B972B299A29982150310964
:1023600080F7599A08952A98E2CF84B1876084B99A
:10237000289A8CB583658CBD08958EBD0DB407FE7B
:10238000FDCF8EB5089584B5826084BD85B5836028
:1023900085BDEEE6F0E080818260808389EF87BDB5
:1023A0000895E1E8F0E08081886080838081836027
:1023B000808380E493E0909389008093880008955F
:1023C000EFE6F0E08081826080830895EFE6F0E040
:1023D00080818D7F80830895E1EBF0E080818460CF
:1023E00080830895E1EBF0E080818B7F8083089506
:1023F000E1E9F0E08081886080838081856080836E
:10240000E1E7F0E080818260808388E09DE3909343
:102410009900809398000895E1E7F0E080818D7F36
:102420008083089580E18093C4001092C500E0ECA1
:10243000F0E0808182608083E1ECF0E0808188615F
:10244000808380818068808308959091C00095FF8B
:10245000FCCF8093C6000895CF93DF93EC01899160
:10246000811103C0DF91CF9108950E942512F7CF0B
:1024700080E18093CC001092CD00E8ECF0E0808108
:1024800082608083E9ECF0E0808188618083089538
:102490009091C80095FFFCCF8093CE00089580E115
:1024A0008093D4001092D500E0EDF0E0808182604E
:1024B0008083E1EDF0E080818861808308959091D0
:1024C000D00095FFFCCF8093D6000895CF93DF9383
:1024D000EC018991811103C0DF91CF9108950E9491
:1024E0005F12F7CF8FEC8093340110923501E0E357
:1024F000F1E0808182608083E1E3F1E080818861A6
:10250000808308959091300195FFFCCF8093360130
:102510000895CF93DF93EC018991811103C0DF917E
:10252000CF9108950E948212F7CFCF93DF931F922D
:102530001F92CDB7DEB70E9468011A82198280917E
:1025400048068823E1F36091C706109248068091FF
:10255000080181608093080170E0CE0101960E941D
:102560002F01809108018E7F8093080183B78160DD
:1025700083BF889583B78E7F83BFE1CFA1E21A2EF8
:10258000AA1BBB1BFD010DC0AA1FBB1FEE1FFF1F17
:10259000A217B307E407F50720F0A21BB30BE40B67
:1025A000F50B661F771F881F991F1A9469F76095AE
:1025B0007095809590959B01AC01BD01CF01089568
:1025C0000E94541388F09F5798F0B92F9927B7515C
:1025D000B0F0E1F0660F771F881F991F1AF0BA95C7
:1025E000C9F714C0B13091F00E946E13B1E00895A4
:1025F0000C946E13672F782F8827B85F39F0B93F96
:10260000CCF3869577956795B395D9F73EF4909579
:102610008095709561957F4F8F4F9F4F0895E894F7
:1026200009C097FB3EF490958095709561957F4F1A
:102630008F4F9F4F9923A9F0F92F96E9BB279395C8
:10264000F695879577956795B795F111F8CFFAF4D8
:10265000BB0F11F460FF1BC06F5F7F4F8F4F9F4F09
:1026600016C0882311F096E911C0772321F09EE867
:10267000872F762F05C0662371F096E8862F70E0CD
:1026800060E02AF09A95660F771F881FDAF7880FA7
:102690009695879597F9089557FD9058440F551FC3
:1026A00059F05F3F71F04795880F97FB991F61F0D4
:1026B0009F3F79F087950895121613061406551F4B
:1026C000F2CF4695F1DF08C0161617061806991FB7
:1026D000F1CF86957105610508940895E894BB27AC
:1026E00066277727CB0197F9089519F416F40C940F
:1026F000C9130C94BB130E945413B8F39923C9F364
:10270000B6F39F57550B87FF0E94CC130024A0E619
:1027100040EA900180585695979528F4805C660FA2
:10272000771F881F20F026173707480730F4621BF1
:10273000730B840B202931294A2BA69517940794F3
:10274000202531254A2758F7660F771F881F20F06C
:1027500026173707480730F4620B730B840B200DE4
:10276000311D411DA09581F7B901842F9158880F23
:102770009695879508959F3F31F0915020F4879565
:1027800077956795B795880F911D9695879597F9D9
:1027900008959FEF80EC089591505040660F771F89
:1027A000881FD2F708950F931F93CF93DF93CDB770
:1027B000DEB72E970FB6F894DEBF0FBECDBF0E89E1
:1027C0001F8986E08C831A8309838FEF9FE79E839E
:1027D0008D83AE01465E5F4F688D798DCE01019687
:1027E0000E9403142F813885020F131FF8011082F5
:1027F0002E960FB6F894DEBF0FBECDBFDF91CF91FE
:102800001F910F9108952F923F924F925F926F9276
:102810007F928F929F92AF92BF92CF92DF92EF9270
:10282000FF920F931F93CF93DF9300D000D000D07F
:102830001F921F92CDB7DEB77C013B018A01FC01DC
:1028400017821682838181FFDDC1CE0101965C0172
:10285000F7019381F30193FD859193FF81913F01EE
:10286000882309F453C1853239F493FD859193FF90
:1028700081913F01853229F4B70190E00E941B1637
:10288000E7CF912C212C312CFFE1F31538F08B325E
:1028900011F190F4803209F1833229F137FC3CC008
:1028A00020ED280F2A3050F536FE20C08AE0989E91
:1028B000200D1124922E06C08D3291F0803371F7D5
:1028C000689430F8F30193FD859193FF81913F0166
:1028D0008111DACF21C0689431F8689432F8F2CFD0
:1028E000689433F8EFCF689434F8ECCFEAE02E9E8A
:1028F000200D1124222E689435F8E4CF8E3229F46D
:1029000036FC04C1689436F8DDCF8C3619F468942F
:1029100037F8D8CF8836B1F2982F9F7D95549330F1
:10292000E0F08336A1F18337C1F1833509F063C04C
:102930002801F2E04F0E511CF801C080D180692DB2
:1029400070E036FC02C06FEF7FEFC6010E940516F3
:102950004C01689437F882010AC00C5F1F4FFFE3F7
:10296000F98388248394912C6501E89437F833FE29
:102970002DC0522C8114910471F5552009F468CFB3
:10298000B70180E290E00E941B165A94F6CFF8013E
:10299000808189830E5F1F4FE4CF2801F2E04F0E44
:1029A000511CF801C080D180692D70E036FC02C056
:1029B0006FEF7FEFC6010E9410164C018201D5CF48
:1029C000B70180E290E00E941B162A942814190493
:1029D00009F0B0F7CECFF60137FC859137FE819133
:1029E0006F01B70190E00E941B1651105A94F1E05C
:1029F0008F1A9108BFCF843619F0893609F077C055
:102A0000F80137FE6BC060817181828193810C5F18
:102A10001F4FF32DFF763F2E97FF09C090958095AD
:102A2000709561957F4F8F4F9F4F689437F82AE0DC
:102A300030E0A5010E944B16C82ECA188C2C432CDE
:102A400036FE0CC0E89440F8C91440F434FE05C0CA
:102A500032FC03C0F32DFE7E4F2E892C44FEAAC00B
:102A6000FE01EC0DF11D8081803309F09CC0242D06
:102A7000297E422E842D8870582E43FCAAC040FE29
:102A8000A4C09C2C821418F42C0C922C981844FE90
:102A9000A6C0B70180E390E00E941B1642FE09C069
:102AA00088E790E041FE02C088E590E0B7010E940F
:102AB0001B16C91408F49FC0CA94D12C9FEFC91AE1
:102AC000D90ACA0CDB1CF60182916F01B70190E0B4
:102AD0000E941B16AC14BD04B1F74FCF6081718109
:102AE000072E000C880B990B0E5F1F4F92CFD32C33
:102AF000E894D4F82AE030E08537E1F1232D297FEE
:102B0000D22E8F36A9F1F0F4883551F1F701868184
:102B100097812B960FB6F894DEBF0FBECDBFDF9125
:102B2000CF911F910F91FF90EF90DF90CF90BF90CA
:102B3000AF909F908F907F906F905F904F903F905D
:102B40002F900895803749F0883701F7D4FE02C0EE
:102B50006894D2F820E130E00DC06894D4F8F6CF44
:102B600034FE03C0822F8660D82E20E132E002C0FE
:102B700028E030E0F801D7FE0FC0608171818281CA
:102B800093810C5F1F4FA5010E944B16C82ECA18D7
:102B90003D2CE89437F852CF6081718190E080E05D
:102BA0000E5F1F4FF0CF42FC02C0839463CF83942B
:102BB000839460CF842D867809F45CCFF6CFB7017B
:102BC00080E290E00E941B1683948214C0F3512C83
:102BD0005ECF522C5818821408F459CFF8CF842DA8
:102BE000867809F466CF8BE241FE80E247FC8DE2F5
:102BF000B70190E05CCFB70180E390E00E941B1624
:102C00009A9457CF8FEF9FEF84CFFC0105906150CE
:102C100070400110D8F7809590958E0F9F1F0895F2
:102C2000FC016150704001900110D8F7809590959B
:102C30008E0F9F1F08950F931F93CF93DF93182F2D
:102C4000092FEB018B8181FD09C01FEF0FEF812F51
:102C5000902FDF91CF911F910F91089582FF14C0A3
:102C60002E813F818C819D81281739073CF4E881B2
:102C7000F981CF0101969983888310838E819F818A
:102C800001969F838E83E3CFE885F985812F19957F
:102C9000892BA1F3DACFFA01AA27283051F120318C
:102CA00081F1E8946F936E7F6E5F7F4F8F4F9F4FE0
:102CB000AF4FB1E03ED0B4E03CD0670F781F891F22
:102CC0009A1FA11D680F791F8A1F911DA11D6A0FF0
:102CD000711D811D911DA11D20D009F468943F91A3
:102CE0002AE0269F11243019305D3193DEF6CF01A2
:102CF0000895462F4770405D4193B3E00FD0C9F768
:102D0000F6CF462F4F70405D4A3318F0495D31FDD4
:102D10004052419302D0A9F7EACFB4E0A695979527
:102D2000879577956795BA95C9F7009761057105FD
:102D300008959B01AC010A2E069457954795379547
:102D40002795BA95C9F7620F731F841F951FA01DA1
:062D50000895F894FFCF86
:102D560070A40578A90574AE057CB30572B8057A2A
:102D6600BD0576C2057EC70571CC0579CC0575CC47
:102D7600057DCC0573CC057BCC0577CC057FCC05D2
:102D860000D10501DA0502E30503ED0504F80505A2
:102D96000306070C06061506051E0604270603325B
:102DA60006023D06B70912B80912B80912B8091287
:102DB600B80912B80912B80912B80912B80912B836
:102DC600093A127C7F137B7F137C7E137B7F157BF6
:102DD6007F137B7F127C7F127C7E137B7F127C7E2F
:102DE600137B7F127C7E137B7F127C7E137B7F128C
:102DF6007C7E137B7F127B7F137B7E137B5AB70906
:102E060012B70912B70912B70A12B70912B70C128C
:102E1600B80912B70912B70A12B70912B70913B7D8
:102E26000912B70A12B70912B80912B70913B70976
:102E360012B70A12B70912B80912B70913B709125D
:102E4600B80912B70913B70912B80912B70913B7A7
:102E56000912B80912B80912B70A12B70912B80945
:102E660012B80928550400025E04B6036504A104DD
:102E76007304B8054006B3068104E5078E049A0973
:102E8600A204C90AB704FE0BCB04330DE0047A0E84
:102E9600EC04E600F104AF00FF04AF000D05AF003F
:102EA6001B05AF002905AF003705AF004505AF008C
:102EB6005305AF006105AF006F05AF007E05AF009B
:102EC6008D05AF009C05AF00000030000100010039
:102ED6003300020002003300030003003300040045
:102EE6000400330005000500330006000600330029
:102EF6000700070033000800080033000900090036
:102F060033000A000A0033000B000B0033000D00EB
:102F1600010031000D00020031000D0003003100F8
:102F26000D00040031000D00050031000D00060003
:102F360031000D00070031000D00080031000D00C2
:102F4600090031000D000A0031000D000B003100B0
:102F56000D000C0031000D00000031000D003A306C
:102F6600317231323D302C0D0A003A303177323031
:102F76003D302C302C0D0A003A30317731323D305D
:102F86002C0D0A00626565703A20256C750D0A00E5
:102F9600626C696E6B3A20257520626565703A2011
:102FA60025750D0A00504F574552204F4E00475287
:102FB6004F554E440050494C4F54205354415445AC
:102FC60020410050494C4F5420535441544520420F
:102FD600004F5645522043555252454E54004746DF
:102FE60043495F4C315F4C4F575F4C45414B41471E
:102FF6004500474643495F4C315F484947485F4C67
:1030060045414B41474500474643495F4C325F4C7B
:103016004F575F4C45414B41474500474643495F43
:103026004C325F484947485F4C45414B4147450054
:10303600535455434B2052454C4159005541525427
:103046000053544154452041424F525420310053BD
:10305600544154452041424F52542032005354416A
:1030660054452041424F5254203300535441544555
:103076002041424F5254203400535441544520417C
:10308600424F525420350053544154452041424F3B
:10309600525420360053544154452041424F525415
:1030A60020370053544154452041424F5254203852
:1030B6000053544154452041424F52542039005345
:1030C600544154452041424F52542031300053540C
:1030D6004154452041424F5254203131005354410E
:1030E60054452041424F5254203132005448452025
:1030F600454E44005450313200545031390054503A
:10310600323100545032320054503235005450326D
:103116003600545033350054503338004E4F4E4528
:103126000053575F4C315F494E0053575F4C325F37
:10313600494E0053575F474E445F494E0053575F11
:103146005354414B5F4C310053575F5354414B5FCF
:103156004C320053575F4C315F4C4C0053575F4C19
:10316600315F484C0053575F4C325F4C4C0053570D
:103176005F4C325F484C0053575F53544154455F90
:10318600420053575F53544154455F410053575FC4
:0631960044494F444500CE
:00000001FF
