:100000000C948A000C94FF0F0C94AB000C947410A9
:100010000C9493100C94AB000C94AB000C94AB00BC
:100020000C94AB000C94AB000C94AB000C94AB00A4
:100030000C94AB000C94AB000C94AB000C94AB0094
:100040000C94AB000C949C0F0C94AB000C94AB0084
:100050000C94AB000C94770F0C94AB000C94AB0099
:100060000C94AB000C94AA100C94AB000C94AB0055
:100070000C94AB000C94C7100C94AB000C94AB0028
:100080000C94AB000C94AB000C94AB000C94AB0044
:100090000C94AB000C94AB000C94AB000C94AB0034
:1000A0000C94AB000C94AB000C94AB000C94AB0024
:1000B0000C94AB000C94AB000C94AB000C94AB0014
:1000C0000C94AB000C94AB000C94AB000C94BD10E2
:1000D0000C94AB000C94AB000C94AB000C94AB00F4
:1000E0000C94AB000C943E060C9436030C94AD00BB
:1000F0000C94570A0C94B5010C948C0B0C9443058A
:100100000C94C10C0C9428090C942C040C94080E2B
:100110000C94700711241FBECFEFD1E2DEBFCDBF1C
:1001200000E00CBF15E0A0E0B2E0EAE5F7E200E095
:100130000BBF02C007900D92A039B107D9F726E096
:10014000A0E9B5E001C01D92A23EB207E1F70E940E
:100150006D120C94AB130C94000088E198E00FB67C
:10016000F894A895809360000FBE90936000FFCF35
:1001700087FF1EC0749A9091020183FF1BC0986094
:10018000909302019091020182FF16C090619093BA
:1001900002019091020181FF11C0906290930201CF
:1001A00080FF0EC080910201806480930201089557
:1001B0007498E1CF977FE4CF9F7EE9CF9F7DEECF0C
:1001C000809102018F7BF1CF0F931F93CF93DF9329
:1001D000FC0120813181E6EDF2E0D0E0C0E0408119
:1001E00051814217530719F542815381461757072A
:1001F000F1F48C01FE01EE0FFF1FEE0FFF1FEE5812
:10020000FD4F0280F381E02D199586E08C9FF0016F
:100210008D9FF00D1124EA52FD4F84819581F801E4
:1002200091838083DF91CF911F910F910895219643
:100230003696C931D10599F6F5CFCF92DF92EF927C
:10024000FF9281B1806F81B982B1806F82B984B130
:10025000806C84B98DB188638DB98EB188638EB995
:100260009D9AA59A809101018867809301018091F0
:100270000201886780930201809107018160809369
:10028000070181B18F6081B9109A0E9416110E94F6
:10029000EA110E9427120E944A120E949B110E949A
:1002A000A9110E945A1183B7817F83BF78948CE68D
:1002B00093E00E946112C0909805D0909905E0905B
:1002C0009A05F0909B0586E490E02091300127FF8D
:1002D00028C020913601973019F52133F1F48FE3CE
:1002E0009CE90197F1F700C0000088E793E00E94C5
:1002F00061128FE39CE90197F1F700C0000086E8E6
:1003000093E00E94611280E50E94FD1186E4FF9057
:10031000EF90DF90CF900C94FD11203309F480E52D
:100320009F5F409198055091990560919A05709151
:100330009B054C195D096E097F094536510561051C
:10034000710518F2E1CFE9E6F0E0808180638083F7
:10035000EA9A0895EA980895E9E6F0E08081806CD1
:100360008083EB9A0895EB9808958F929F92AF92B5
:10037000BF92CF92DF92EF92FF920F931F93CF9392
:10038000DF93CDB7DEB72C970FB6F894DEBF0FBE64
:10039000CDBF42B120915D0281E090E0BC0102C07E
:1003A000660F771F2A95E2F79B012095242322B937
:1003B0007FEFE3EDF0E37150E040F040E1F700C083
:1003C000000027B130913602AC0101C0440F3A95CC
:1003D000EAF7242B27B92FEF39E648E121503040C6
:1003E0004040E1F700C0000047B120913002BC015D
:1003F00002C0660F771F2A95E2F79B013091330206
:1004000001C0880F3A95EAF7822B842B87B90E94A6
:1004100042110E9436110E94AC010E94B811409115
:1004200098055091990560919A0570919B0510E08F
:1004300080919305882309F468C0163008F530E0F0
:1004400020E0F901E75FF94F8081A12FB0E0FD01C5
:10045000EE0FFF1FEA0FFB1FE05AFD4FE20FF31FE5
:100460009081891B990B97FF03C091958195910904
:10047000C3970CF01F5F2F5F3F4F2330310509F703
:100480001092930580910D0690910E06A0910F0693
:10049000B09110068933914CA140B10550F1C09044
:1004A0000D06D0900E06E0900F06F0901006809199
:1004B000DC069091DD06A091DE06B091DF068C0D82
:1004C0009D1DAE1DBF1D8093DC069093DD06A0939D
:1004D000DE06B093DF06209112063091130680915C
:1004E000E0069091E106820F931F9093E1068093BE
:1004F000E00610920D0610920E0610920F06109252
:100500001006109213061092120680919805909191
:100510009905A0919A05B0919B05841B950BA60B9C
:10052000B70B813D9740A105B10508F481CF0E942A
:100530003C110E94BE110E94B3012F9A2FEF39E6A1
:1005400048E1215030404040E1F700C00000809178
:1005500012020E94B8006FEF79E688E161507040A6
:100560008040E1F700C000000E9460114C018091C2
:1005700006020E94B8009FEFE9E6F8E19150E040E2
:10058000F040E1F700C000000E9460115C01809122
:1005900009020E94B8002FEF39E648E121503040AF
:1005A0004040E1F700C000000E9460116C018091A2
:1005B0000C020E94B8006FEF79E688E1615070404C
:1005C0008040E1F700C000000E9460117C01809132
:1005D0000F020E94B8009FEFE9E6F8E19150E04079
:1005E000F040E1F700C000000E9460112F98409198
:1005F000DC065091DD066091DE067091DF062091E9
:10060000E0063091E10620E5153009F026E4298363
:1006100020E52A839C828B82BE82AD82D886CF82DF
:10062000FA86E9869C878B878E010F5F1F4F7E01BC
:100630002DE0E20EF11CF80181918F010E94FD1165
:100640000E151F05C1F72C960FB6F894DEBF0FBE2E
:10065000CDBFDF91CF911F910F91FF90EF90DF9071
:10066000CF90BF90AF909F908F9008958F929F9260
:10067000AF92BF92CF92DF92EF92FF92CF93DF9330
:1006800088B19091360221E030E001C0220F9A95A6
:10069000EAF7822B88B9C0909805D0909905E09030
:1006A0009A05F0909B05E29AF89480916900806326
:1006B00080936900EA9A78940E94AC010E94B81174
:1006C0002F9A80E0D0E0812C912C540120E0C0E0F2
:1006D000909193059923D1F04091090690E050E064
:1006E000481B590B4B35510544F44091090650E025
:1006F000481B590B463A5F4F0CF4CF5F80910906B7
:1007000090910A0690910B06109293059091910595
:10071000992371F0213009F470C080909805909071
:100720009905A0909A05B0909B0521E01092910543
:10073000409198055091990560919A0570919B059B
:100740004C195D096E097F094932534261057105F3
:1007500008F4BECF809115020E94B8002FEF69E621
:1007600078E1215060407040E1F700C000000E9435
:1007700060117C012F980E94BE110E94B3010E945B
:10078000AA0148B18091300221E030E0B90102C0F5
:10079000660F771F8A95E2F7CB019091330201C073
:1007A000220F9A95EAF7822B842B88B97FEF8DE38D
:1007B00099E4715080409040E1F700C0000021E6CC
:1007C000E21A29E0F20AC650C230E0F5D33009F04F
:1007D0003FC063E6E616F104E8F583E30E94FD11ED
:1007E00080E5DF91CF91FF90EF90DF90CF90BF90A9
:1007F000AF909F908F900C94FD114091980550916F
:10080000990560919A0570919B05481959096A09E3
:100810007B094E3E52406105710590F44091980568
:100820005091990560919A0570919B054819590955
:100830006A097B09483652406105710508F0DF5F9F
:1008400020E074CF80E08F5C0E94FD1186E4C9CF68
:1008500081E0F9CF82E0F7CFCF92DF92EF92FF9263
:100860000F931F93CF93DF9348B18091360221E01D
:1008700030E0B90102C0660F771F8A95E2F7CB011D
:100880008095842388B97FEF89E698E17150804094
:100890009040E1F700C0000048B180913002B901FA
:1008A00002C0660F771F8A95E2F7CB019091330261
:1008B000B90101C0660F9A95EAF7862B80958423CB
:1008C00088B97FEF87EA91E6715080409040E1F768
:1008D00000C000008091070190914E0201C0220FDC
:1008E0009A95EAF7282B20930701809107018260EF
:1008F0008093070180910801826080930801C09075
:100900009805D0909905E0909A05F0909B050E947B
:10091000AC010E94B8110E94C41110920D061092F1
:100920000E0610920F0610921006109213061092E7
:1009300012060E9442110E94361180916900836064
:1009400080936900E89AC0E000E010E041E0D0E068
:10095000809193058823A1F080910B06811B990B50
:1009600097FF03C0919581959109C3970CF0DF5FC4
:100970008091090680910A0610910B06109293054A
:1009800080919F058823D9F030E020E090E080E05E
:10099000F901EE0FFF1FEC5EF94F51815081850F79
:1009A000911D2F5F3F4F2436310591F780549F41B1
:1009B00001E08438934008F400E010929F05809194
:1009C000980590919905A0919A05B0919B058C1975
:1009D0009D09AE09BF09853F9140A105B105D0F041
:1009E0004423C1F060910D0670910E0680910F06B0
:1009F00090911006209112063091130650E040E0CD
:100A00000E949612C1E02A3031054105510508F4D3
:100A1000C0E040E08091980590919905A0919A05D9
:100A2000B0919B058C199D09AE09BF098938934186
:100A3000A105B10508F48CCF0E943C110E94B301BE
:100A40000E94BE110E94CA11E898D63090F00111A0
:100A500016C0C11116C083E30E94FD1180E5DF912D
:100A6000CF911F910F91FF90EF90DF90CF900C945A
:100A7000FD1180E08F5C0E94FD1186E4F0CF81E0E3
:100A8000F9CF82E0F7CFBF92CF92DF92EF92FF9241
:100A90000F931F93CF93DF938091070190914B02A7
:100AA00021E030E001C0220F9A95EAF7822B809373
:100AB0000701C0909805D0909905E0909A05F090B4
:100AC0009B050E94AC010E94B8110E94C4110E94B3
:100AD00042110E9436118091690083608093690001
:100AE000E89AC0E0B12C00E011E041E0D0E0809154
:100AF00093058823A1F080910A06801B990B97FF2C
:100B000003C0919581959109C3970CF0DF5F8091A7
:100B1000090600910A0680910B06109293058091B8
:100B20009F058823E1F030E020E090E080E0F901CB
:100B3000EE0FFF1FEC5EF94F51815081850F911D23
:100B40002F5F3F4F2436310591F780549F41BB24DE
:100B5000B3948438934008F4B12C10929F0580918F
:100B6000980590919905A0919A05B0919B058C19D3
:100B70009D09AE09BF098D3D9540A105B10578F0ED
:100B8000112369F010920D0610920E0610920F06B6
:100B900010921006109213061092120610E0809127
:100BA000980590919905A0919A05B0919B058C1993
:100BB0009D09AE09BF09813D9740A105B105F8F037
:100BC0004423E9F060910D0670910E0680910F06A6
:100BD00090911006209112063091130650E040E0EB
:100BE0000E949612CA01B9010E94E7120E94531393
:100BF0000E94B812C1E0693208F0C0E040E0809184
:100C0000980590919905A0919A05B0919B058C1932
:100C10009D09AE09BF0989389341A105B10508F4C2
:100C200066CF0E943C110E94BE110E94B3010E9437
:100C3000CA11E898809108018D7F80930801D63011
:100C400098F0B11017C0C11117C083E30E94FD11C5
:100C500080E5DF91CF911F910F91FF90EF90DF9092
:100C6000CF90BF900C94FD1180E08F5C0E94FD112D
:100C700086E4EFCF81E0F9CF82E0F7CF4F925F9229
:100C80006F927F928F929F92AF92BF92EF92FF925C
:100C90000F931F93CF93DF9380910701909151029F
:100CA00021E030E001C0220F9A95EAF7822B809371
:100CB0000701409098055090990560909A057090B2
:100CC0009B050E94A3010E94AC010E94B8110E94E2
:100CD00042110E943611E12C812C912C5401F12CEF
:100CE00000E010E040E0D0E0C0E080919305882370
:100CF000E1F0209109068E2D90E030E0281B390BA1
:100D00002B35310544F42091090630E0281B390BBE
:100D1000263A3F4F0CF41F5FE090090680910A06C7
:100D200080910B064F5F1092930580919105882367
:100D3000F9F0109291058091980590919905A091F4
:100D40009A05B0919B0584199509A609B7098531C3
:100D50009540A105B10560F0013009F492C0809082
:100D6000980590909905A0909A05B0909B0501E098
:100D70004A3031F560910D0670910E0680910F0694
:100D800090911006209112063091130650E040E039
:100D90000E949612CA01B9010E94E7120E945313E1
:100DA0000E94B812EB0110920D0610920E061092DE
:100DB0000F0610921006109213061092120640E0D1
:100DC0008091980590919905A0919A05B0919B0505
:100DD00084199509A609B70989329342A105B1057D
:100DE00008F483CF48B18091360221E030E0B901A8
:100DF00002C0660F771F8A95E2F7CB01909130020F
:100E0000B90101C0660F9A95EAF7862B842B909161
:100E10003302A90101C0440F9A95EAF7842B88B9DF
:100E2000809108019091510201C0220F9A95EAF732
:100E3000282B209308010E943C110E94BE110E94A1
:100E4000B3010E94AA011251123008F03FC079E0AC
:100E5000F71242C0649708F041C083E30E94FD117D
:100E600080E5DF91CF911F910F91FF90EF90BF90A0
:100E7000AF909F908F907F906F905F904F900C9469
:100E8000FD118091980590919905A0919A05B091D6
:100E90009B0588199909AA09BB09803D9240A105C3
:100EA000B10590F48091980590919905A0919A05CB
:100EB000B0919B0588199909AA09BB098F36924000
:100EC000A105B10508F0F39400E052CF80E08F5CFB
:100ED0000E94FD1186E4C5CF81E0F9CF82E0F7CF13
:100EE0002F923F924F925F926F927F928F929F923A
:100EF000AF92BF92CF92DF92EF92FF920F931F9328
:100F0000CF93DF9300D000D01F921F92CDB7DEB7F2
:100F100048B18091360221E030E0B90102C0660F8D
:100F2000771F8A95E2F7CB018095842388B97FEFFC
:100F300089E698E1715080409040E1F700C00000E0
:100F400048B180913002D90102C0AA0FBB1F8A9517
:100F5000E2F7CD019091330201C0220F9A95EAF792
:100F6000822B8095842388B9BFEF29E638E1B15000
:100F700020403040E1F700C0000082B18F7C82B990
:100F80004FEF59E668E1415050406040E1F700C042
:100F900000000E94AC010E94B8110E9442110E9400
:100FA00036118091980590919905A0919A05B0917C
:100FB0009B058B839C83AD83BE83409098055090A6
:100FC000990560909A0570909B05198200E01A823D
:100FD0001F82312C212CC12CD12C760110E01886D7
:100FE00020E0809193058823D1F080910906A981A2
:100FF0008A1B990B97FF03C09195819591098B35B9
:1010000091051CF0B885BF5FB88730910906398318
:1010100080910A0680910B062F5F109293052A306B
:10102000A9F560910D0670910E0680910F069091C2
:101030001006209112063091130650E040E00E9405
:101040009612CA01B9010E94E7120E9453130E942E
:10105000B8124B01CB0182199309853191050CF42B
:101060009CC04A81411104C00E94A30151E05A83EF
:1010700010920D0610920E0610920F061092100696
:101080001092130610921206140120E0809191052F
:10109000882371F0113009F493C0C0909805D09066
:1010A0009905E0909A05F0909B0511E0109291054A
:1010B0008091980590919905A0919A05B0919B0512
:1010C00084199509A609B709893B9442A105B10580
:1010D00008F49DC0002309F49AC08D9882B1806302
:1010E00082B96FEF74E38CE0615070408040E1F7AB
:1010F00000C0000048B18091360221E030E0D90103
:1011000002C0AA0FBB1F8A95E2F7CD019091300271
:10111000B90101C0660F9A95EAF7862B842B90914E
:10112000330201C0220F9A95EAF7822B88B90E94F8
:101130003C110E94BE110E94B3010E94AA01BF810E
:10114000BA50B98328852651223008F077C0B230D2
:1011500008F07AC03AE02316310408F077C083E340
:101160000E94FD1180E528960FB6F894DEBF0FBEF1
:10117000CDBFDF91CF911F910F91FF90EF90DF9046
:10118000CF90BF90AF909F908F907F906F905F9027
:101190004F903F902F900C94FD11893E9F4F0CF083
:1011A00067CF011165CF40909805509099056090E8
:1011B0009A0570909B058DE20E94FD1101E058CFC9
:1011C0008091980590919905A0919A05B0919B0501
:1011D0008C199D09AE09BF09803D9240A105B1055A
:1011E000A0F48091980590919905A0919A05B091ED
:1011F0009B058C199D09AE09BF098F369240A10548
:10120000B10518F04F814F5F4F8310E04FCF8091B1
:10121000980590919905A0919A05B0919B054B81F5
:101220005C816D817E81841B950BA60BB70B893A7F
:101230009146A105B10508F4D4CE50CF80E08F5C73
:101240000E94FD1186E48FCF81E0F9CF82E0F7CFD5
:101250008F929F92AF92BF92CF92DF92EF92FF92C6
:10126000CF93DF9348B18091360221E030E0B9019D
:1012700002C0660F771F8A95E2F7CB018095842321
:1012800088B97FEF89E698E1715080409040E1F79E
:1012900000C0000048B180913002B90102C0660F61
:1012A000771F8A95E2F7CB0190913302B90101C013
:1012B000660F9A95EAF7862B8095842388B97FEF8D
:1012C00087EA91E6715080409040E1F700C000004D
:1012D00087B190913F0201C0220F9A95EAF7282B1F
:1012E00027B90E94A3010E94AC010E94B81180900E
:1012F000980590909905A0909A05B0909B0580E084
:10130000D0E0C12CD12C760120E0C0E09091930573
:101310009923D1F04091090690E050E0481B590B09
:101320004B35510544F44091090650E0481B590BD8
:10133000463A5F4F0CF4CF5F8091090690910A0600
:1013400090910B0610929305909191059923F9F0D5
:10135000409198055091990560919A0570919B056F
:10136000481959096A097B094930574061057105D7
:1013700060F0213009F46EC0C0909805D0909905B6
:10138000E0909A05F0909B0521E010929105409124
:1013900098055091990560919A0570919B0548199F
:1013A00059096A097B09413059416105710508F401
:1013B000ADCF0E94BE110E94B3010E94AA012F9AD4
:1013C000809103020E94B8002FEF49E668E12150A6
:1013D00040406040E1F700C000000E9460112F987B
:1013E00048B18091360221E030E0B90102C0660FB9
:1013F000771F8A95E2F7CB0190913002B90101C0C5
:10140000660F9A95EAF7862B842B90913302A901F7
:1014100001C0440F9A95EAF7842B90913F0201C0D6
:10142000220F9A95EAF7822B88B9C850C230B8F5D6
:10143000D430D9F583E30E94FD1180E5DF91CF918F
:10144000FF90EF90DF90CF90BF90AF909F908F90E4
:101450000C94FD11409198055091990560919A0561
:1014600070919B054C195D096E097F094E3E5240F3
:101470006105710590F4409198055091990560912E
:101480009A0570919B054C195D096E097F094836D4
:1014900052406105710508F0DF5F20E076CF80E003
:1014A0008F5C0E94FD1186E4C9CF81E0F9CF8F9255
:1014B0009F92AF92BF92CF92DF92EF92FF92CF9323
:1014C000DF9348B18091360221E030E0B90102C0DB
:1014D000660F771F8A95E2F7CB018095842388B940
:1014E0007FEF89E698E1715080409040E1F700C0BD
:1014F000000048B180913002B90102C0660F771F29
:101500008A95E2F7CB0190913302B90101C0660FD1
:101510009A95EAF7862B8095842388B97FEF87EA2E
:1015200091E6715080409040E1F700C0000080914A
:1015300007019091420201C0220F9A95EAF7282BE9
:10154000209307010E94A3010E94AC010E94B811E0
:101550008090980590909905A0909A05B0909B0571
:1015600080E0D0E0C12CD12C760120E0C0E0909149
:1015700093059923D1F04091090690E050E0481B73
:10158000590B4B35510544F44091090650E0481B76
:10159000590B463A5F4F0CF4CF5F8091090690914A
:1015A0000A0690910B06109293059091910599234C
:1015B000F9F0409198055091990560919A057091C4
:1015C0009B05481959096A097B09413B544061054B
:1015D000710560F0213009F472C0C0909805D09078
:1015E0009905E0909A05F0909B0521E010929105F5
:1015F000409198055091990560919A0570919B05CD
:10160000481959096A097B09413A5F40610571052A
:1016100008F4ADCF0E94BE110E94B3010E94AA013E
:101620002F9A809103020E94B8002FEF49E668E1EB
:10163000215040406040E1F700C000000E9460116E
:101640002F9848B18091360221E030E0B90102C004
:10165000660F771F8A95E2F7CB0190913002B901AE
:1016600001C0660F9A95EAF7862B842B909133027E
:10167000A90101C0440F9A95EAF7842B88B980919B
:1016800008019091420201C0220F9A95EAF7282B97
:1016900020930801C450C230B8F5D230D9F583E3A5
:1016A0000E94FD1180E5DF91CF91FF90EF90DF90D8
:1016B000CF90BF90AF909F908F900C94FD11409170
:1016C00098055091990560919A0570919B054C1968
:1016D0005D096E097F094E3E52406105710590F427
:1016E000409198055091990560919A0570919B05DC
:1016F0004C195D096E097F09483652406105710534
:1017000008F0DF5F20E072CF80E08F5C0E94FD1167
:1017100086E4C9CF81E0F9CF8F929F92AF92BF92BA
:10172000CF92DF92EF92FF92CF93DF9348B18091F7
:10173000360221E030E0B90102C0660F771F8A95BA
:10174000E2F7CB018095842388B97FEF89E698E1A1
:10175000715080409040E1F700C0000048B1809196
:101760003002B90102C0660F771F8A95E2F7CB01FC
:1017700090913302B90101C0660F9A95EAF7862B62
:101780008095842388B97FEF87EA91E67150804085
:101790009040E1F700C00000809107019091450260
:1017A00001C0220F9A95EAF7282B209307010E9487
:1017B000A3010E94AC010E94B811809098059090FE
:1017C0009905A0909A05B0909B0580E0D0E0C12CCF
:1017D000D12C760120E0C0E0909193059923D1F0BF
:1017E0004091090690E050E0481B590B4B355105DC
:1017F00044F44091090650E0481B590B463A5F4FAC
:101800000CF4CF5F8091090690910A0690910B0627
:1018100010929305909191059923F9F040919805C4
:101820005091990560919A0570919B054819590945
:101830006A097B09493057406105710560F0213024
:1018400009F472C0C0909805D0909905E0909A056F
:10185000F0909B0521E010929105409198055091E0
:10186000990560919A0570919B05481959096A0973
:101870007B09413059416105710508F4ADCF0E94E3
:10188000BE110E94B3010E94AA012F9A8091030207
:101890000E94B8002FEF49E668E1215040406040C7
:1018A000E1F700C000000E9460112F9848B18091BC
:1018B000360221E030E0B90102C0660F771F8A9539
:1018C000E2F7CB0190913002B90101C0660F9A9501
:1018D000EAF7862B842B90913302A90101C0440FB3
:1018E0009A95EAF7842B88B9809108019091450276
:1018F00001C0220F9A95EAF7282B20930801C850BF
:10190000C230B8F5D430D9F583E30E94FD1180E5EB
:10191000DF91CF91FF90EF90DF90CF90BF90AF908D
:101920009F908F900C94FD114091980550919905CE
:1019300060919A0570919B054C195D096E097F09AC
:101940004E3E52406105710590F4409198055091CA
:10195000990560919A0570919B054C195D096E0976
:101960007F09483652406105710508F0DF5F20E0CD
:1019700072CF80E08F5C0E94FD1186E4C9CF81E0C8
:10198000F9CF8F929F92AF92BF92CF92DF92EF9258
:10199000FF92CF93DF9348B18091360221E030E08F
:1019A000B90102C0660F771F8A95E2F7CB018095D7
:1019B000842388B97FEF89E698E171508040904098
:1019C000E1F700C0000048B180913002B90102C0C7
:1019D000660F771F8A95E2F7CB0190913302B90128
:1019E00001C0660F9A95EAF7862B8095842388B903
:1019F0007FEF87EA91E6715080409040E1F700C0A8
:101A00000000809107019091480201C0220F9A9531
:101A1000EAF7282B209307010E94A3010E94AC0142
:101A20000E94B8118090980590909905A0909A0511
:101A3000B0909B0580E0D0E0C12CD12C760120E055
:101A4000C0E0909193059923D1F04091090690E070
:101A500050E0481B590B4B35510544F440910906A1
:101A600050E0481B590B463A5F4F0CF4CF5F809112
:101A7000090690910A0690910B0610929305909199
:101A800091059923F9F0409198055091990560913D
:101A90009A0570919B05481959096A097B09413BD0
:101AA00054406105710560F0213009F484C0C09094
:101AB0009805D0909905E0909A05F0909B0521E05B
:101AC00010929105409198055091990560919A0561
:101AD00070919B05481959096A097B09413A5F4091
:101AE0006105710508F4ADCF0E94BE110E94B301DB
:101AF0000E94AA012F9A809103020E94B8002FEF42
:101B000049E668E1215040406040E1F700C0000034
:101B10000E9460112F9848B12091360281E090E038
:101B2000BC0102C0660F771F2A95E2F79B01309136
:101B30003002BC0101C0660F3A95EAF7262B242B30
:101B400030913302AC0101C0440F3A95EAF7242BDF
:101B500028B94091080120914802BC0102C0660FDB
:101B6000771F2A95E2F79B0130914B02BC0101C01F
:101B7000660F3A95EAF7262B242B30914E0201C0CE
:101B8000880F3A95EAF7822B80930801C450C2303F
:101B9000B8F5D230D9F583E30E94FD1180E5DF91DD
:101BA000CF91FF90EF90DF90CF90BF90AF909F903C
:101BB0008F900C94FD11409198055091990560917A
:101BC0009A0570919B054C195D096E097F094E3E7F
:101BD00052406105710590F4409198055091990526
:101BE00060919A0570919B054C195D096E097F09FA
:101BF000483652406105710508F0DF5F20E060CF94
:101C000080E08F5C0E94FD1186E4C9CF81E0F9CFAE
:101C1000CF92DF92EF92FF920F931F93CF93DF93B8
:101C200048B12091360281E090E0BC0102C0660F0D
:101C3000771F2A95E2F79B012095242328B97FEF8F
:101C400029E638E1715020403040E1F700C0000043
:101C500048B120913002BC0102C0660F771F2A955F
:101C6000E2F79B0130913302BC0101C0660F3A9547
:101C7000EAF7262B2095242328B97FEF27EA31E6BF
:101C8000715020403040E1F700C0000047B1209182
:101C90003902BC0102C0660F771F2A95E2F79B014B
:101CA00030913C0201C0880F3A95EAF7822B842BD1
:101CB00087B90E94A3010E94AC010E94B8110E9442
:101CC00042110E943611C0909805D0909905E0907D
:101CD0009A05F0909B0580E0D0E040E0C0E0909154
:101CE00093059923D9F02091090690E030E0281B54
:101CF000390B2B35310544F42091090630E0281BBF
:101D0000390B263A3F4F0CF4CF5F80910906909132
:101D10000A0690910B064F5F109293054A3069F4C2
:101D200010920D0610920E0610920F0610921006D9
:101D3000109213061092120640E09091910599239B
:101D400019F0DF5F109291050091980510919905A7
:101D500020919A0530919B050C191D092E093F0908
:101D6000013A1F402105310508F4B9CF0E94BE1188
:101D70000E94B3010E94AA010E944B1148B18091B8
:101D8000360221E030E0B90102C0660F771F8A9564
:101D9000E2F7CB0190913002B90101C0660F9A952C
:101DA000EAF7862B842B90913302A90101C0440FDE
:101DB0009A95EAF7842B90913902A90101C0440F4A
:101DC0009A95EAF7842B90913C0201C0220F9A95D4
:101DD000EAF7822B88B960910D0670910E0680910A
:101DE0000F0690911006209112063091130650E0D4
:101DF00040E00E949612CA01B9010E94E7120E94B7
:101E000053130E94B812C650C23098F4D630B9F4B9
:101E100061317105B0F483E30E94FD1180E5DF912B
:101E2000CF911F910F91FF90EF90DF90CF900C9486
:101E3000FD1180E08F5C0E94FD1186E4F0CF81E00F
:101E4000F9CF82E0F7CFEF92FF920F931F93CF93DA
:101E5000DF93CDB7DEB760970FB6F894DEBF0FBE45
:101E6000CDBF8091070182608093070180910801B6
:101E70008260809308012FEF81EE94E02150804032
:101E80009040E1F700C00000FE01319680E1DF01E3
:101E90001D928A95E9F781E0888B8F017E01B1E17F
:101EA000EB0EF11CF80181918F010E9437120E1583
:101EB0001F05C1F7809108018D7F8093080160960E
:101EC0000FB6F894DEBF0FBECDBFDF91CF911F914B
:101ED0000F91FF90EF90089581FF05C0129A80FF47
:101EE00004C0139A08951298FACF139808951F9278
:101EF0000F920FB60F9211248F939F93AF93BF93BE
:101F00008091980590919905A0919A05B0919B05B3
:101F10000196A11DB11D8093980590939905A093FA
:101F20009A05B0939B05BF91AF919F918F910F90B0
:101F30000FBE0F901F9018951F920F920FB60F9221
:101F400011240BB60F922F933F934F935F936F9390
:101F50007F938F939F93AF93BF93EF93FF93809162
:101F60009C05813019F58091940590919505809399
:101F7000090683E00E946C0F82E080939C0510921A
:101F8000950510929405FF91EF91BF91AF919F91AC
:101F90008F917F916F915F914F913F912F910F9012
:101FA0000BBE0F900FBE0F901F90189580919C054F
:101FB000823059F4809194059091950580930A069A
:101FC00081E00E946C0F83E0D8CF80919C05833024
:101FD00079F4809194059091950580930B0680E0AB
:101FE0000E946C0F81E080939C0580939305C7CF7E
:101FF00081E080939C0580E00E946C0FC0CF1F920F
:102000000F920FB60F9211240BB60F922F933F939E
:102010004F935F938F939F93EF93FF938091A205CC
:10202000813069F0823031F11092B20081E080930A
:10203000A205809169008E7F809369000CC0809119
:10204000B2008093A105809169008160809369004E
:1020500082E08093A205FF91EF919F918F915F9114
:102060004F913F912F910F900BBE0F900FBE0F908D
:102070001F9018958091B2008093A0051092B20035
:10208000809169008E7F8093690091E09093A20512
:102090008091A0052091A105E091A305F091A405F0
:1020A000821BEE0FFF1FEC5EF94F8083E091A305CA
:1020B000F091A4058091A005EE0FFF1FEC5EF94F93
:1020C00081832091A3053091A405A9014F5F5F4F43
:1020D0005093A4054093A3052436310508F4BBCFE3
:1020E00090939F05E898B7CF1F920F920FB60F926B
:1020F00011240BB60F928F939F93EF93FF9381E080
:1021000080939105E9E6F0E0808190E18927808362
:10211000FF91EF919F918F910F900BBE0F900FBE8B
:102120000F901F9018951F920F920FB60F921124C7
:102130008F939F938091940590919505019690932C
:102140009505809394059F918F910F900FBE0F90EE
:102150001F9018951F920F920FB60F9211248F9314
:102160008091C6008093110681E0809392058F9143
:102170000F900FBE0F901F9018951F920F920FB6E1
:102180000F9211240F900FBE0F901F9018951F9261
:102190000F920FB60F9211242F934F935F936F936B
:1021A0007F938F939F93AF93BF93809179008F57C5
:1021B000990B97FF03C091958195910980930C0627
:1021C00020910C0680910C0640910D0650910E0650
:1021D00060910F0670911006289FC0011124092EEE
:1021E000000CAA0BBB0B840F951FA61FB71F809373
:1021F0000D0690930E06A0930F06B09310068091E3
:10220000120690911306019690931306809312067E
:10221000BF91AF919F918F917F916F915F914F91FE
:102220002F910F900FBE0F901F901895ECE7F0E0E4
:10223000808180648083808180628083EAE7F0E02F
:1022400080818760808380818062808380818860D4
:1022500080838081806880830895ECE7F0E080814E
:102260008260808380818E7F80830895ECE7F0E038
:102270008081836080830895EAE7F0E08081877F32
:1022800080830895EAE7F0E0808188608083808120
:10229000806480830895089580917B00806480939A
:1022A0007B0080917A0086FDFCCF80917800909130
:1022B00079000895519A599A84B1866084B9089535
:1022C000599886E090E024E630E0A901082E02C08B
:1022D000559547950A94E2F740FF1DC02A9A299A1E
:1022E0002998019790F790E080E02BE030E041E002
:1022F00050E01B9B09C0BA01022E02C0660F771F77
:102300000A94E2F7862B972B299A299821503109B4
:1023100080F7599A08952A98E2CF84B1876084B9EA
:10232000289A8CB583658CBD08958EBD0DB407FECB
:10233000FDCF8EB5089584B5826084BD85B5836078
:1023400085BDEEE6F0E080818260808389EF87BD05
:102350000895E1E8F0E08081886080838081836077
:10236000808380E493E090938900809388000895AF
:10237000EFE6F0E08081826080830895EFE6F0E090
:1023800080818D7F80830895E1EBF0E0808184601F
:1023900080830895E1EBF0E080818B7F8083089556
:1023A000E1E9F0E0808188608083808185608083BE
:1023B000E1E7F0E080818260808388E09DE3909394
:1023C0009900809398000895E1E7F0E080818D7F87
:1023D0008083089580E18093C4001092C500E0ECF2
:1023E000F0E0808182608083E1ECF0E080818861B0
:1023F000808380818068808308959091C00095FFDC
:10240000FCCF8093C6000895CF93DF93EC018991B0
:10241000811103C0DF91CF9108950E94FD11F7CF84
:1024200080E18093CC001092CD00E8ECF0E0808158
:1024300082608083E9ECF0E0808188618083089588
:102440009091C80095FFFCCF8093CE00089580E165
:102450008093D4001092D500E0EDF0E0808182609E
:102460008083E1EDF0E08081886180830895909120
:10247000D00095FFFCCF8093D6000895CF93DF93D3
:10248000EC018991811103C0DF91CF9108950E94E1
:102490003712F7CF8FEC8093340110923501E0E3CF
:1024A000F1E0808182608083E1E3F1E080818861F6
:1024B000808308959091300195FFFCCF8093360181
:1024C0000895CF93DF93EC018991811103C0DF91CF
:1024D000CF9108950E945A12F7CFCF93DF931F92A6
:1024E0001F92CDB7DEB70E941D011A82198280911A
:1024F00092058823E1F36091110610929205809174
:10250000080181608093080170E0CE0101960E946D
:10251000E400809108018E7F8093080183B7816079
:1025200083BF889583B78E7F83BFE1CFA1E21A2E48
:10253000AA1BBB1BFD010DC0AA1FBB1FEE1FFF1F67
:10254000A217B307E407F50720F0A21BB30BE40BB7
:10255000F50B661F771F881F991F1A9469F76095FE
:102560007095809590959B01AC01BD01CF010895B8
:102570000E942C1388F09F5798F0B92F9927B751D4
:10258000B0F0E1F0660F771F881F991F1AF0BA9517
:10259000C9F714C0B13091F00E944613B1E008951C
:1025A0000C944613672F782F8827B85F39F0B93F0E
:1025B000CCF3869577956795B395D9F73EF49095CA
:1025C0008095709561957F4F8F4F9F4F0895E89448
:1025D00009C097FB3EF490958095709561957F4F6B
:1025E0008F4F9F4F9923A9F0F92F96E9BB27939519
:1025F000F695879577956795B795F111F8CFFAF429
:10260000BB0F11F460FF1BC06F5F7F4F8F4F9F4F59
:1026100016C0882311F096E911C0772321F09EE8B7
:10262000872F762F05C0662371F096E8862F70E01D
:1026300060E02AF09A95660F771F881FDAF7880FF7
:102640009695879597F9089557FD9058440F551F13
:1026500059F05F3F71F04795880F97FB991F61F024
:102660009F3F79F087950895121613061406551F9B
:10267000F2CF4695F1DF08C0161617061806991F07
:10268000F1CF86957105610508940895E894BB27FC
:1026900066277727CB0197F9089519F416F40C945F
:1026A000A1130C9493130E942C13B8F39923C9F32C
:1026B000B6F39F57550B87FF0E94A4130024A0E692
:1026C00040EA900180585695979528F4805C660FF3
:1026D000771F881F20F026173707480730F4621B42
:1026E000730B840B202931294A2BA6951794079444
:1026F000202531254A2758F7660F771F881F20F0BD
:1027000026173707480730F4620B730B840B200D34
:10271000311D411DA09581F7B901842F9158880F73
:102720009695879508959F3F31F0915020F48795B5
:1027300077956795B795880F911D9695879597F929
:1027400008959FEF80EC089591505040660F771FD9
:0A275000881FD2F70895F894FFCF18
:10275A0070DC0478E10474E6047CEB0472F0047A19
:10276A00F50476FA047EFF047104057904057504FC
:10277A00057D04057304057B04057704057F0405BC
:10278A00000905011205021B05032505043005058C
:10279A003B05074405064D05055605045F05036A12
:1027AA0005027505047E05058305068805078C055F
:1027BA00000000C00913C22E79C00913C009130210
:1027CA0025679203B5019B033603A2032C04B003C9
:1027DA00430578053E06BE037007CB032809DF03CD
:1027EA00570AF4038C0B0804C10C1D04080ED80404
:1027FA00AD002904AD003704AD004504AD00530413
:10280A00AD006104AD006F04AD007D04AD008B0422
:10281A00AD009904AD00A704AD00B604AD00C5042F
:10282A00AD00D404AD000000300001000100330007
:10283A000200020033000300030033000400040016
:10284A0033000500050033000600060033000700C8
:10285A0007003300080008003300090009003300AC
:10286A000A000A0033000B000B0033000D000100C0
:10287A0031000D00020031000D00030031000D008F
:10288A00040031000D00050031000D000600310082
:10289A000D00070031000D00080031000D0009008D
:1028AA0031000D000A0031000D000B0031000D004F
:1028BA000C0031000D00000031000D003A30317279
:1028CA0031323D302C0D0A003A30317732303D300A
:1028DA002C302C0D0A003A30317731323D302C0D34
:1028EA000A00504F574552204F4E0047524F554EFF
:1028FA00440050494C4F5420535441544520410000
:10290A0050494C4F542053544154452042004F568D
:10291A0045522043555252454E5400474643495F5B
:10292A004C315F4C4F575F4C45414B41474500473F
:10293A004643495F4C315F484947485F4C45414BE4
:10294A0041474500474643495F4C325F4C4F575F0A
:10295A004C45414B41474500474643495F4C325F2E
:10296A00484947485F4C45414B41474500535455F8
:10297A00434B2052454C4159005354415445204140
:10298A00424F525420310053544154452041424F42
:10299A00525420320053544154452041424F52541C
:1029AA0020330053544154452041424F525420345D
:1029BA000053544154452041424F5254203500534C
:1029CA00544154452041424F5254203600535441F9
:1029DA0054452041424F52542037005354415445E4
:1029EA002041424F5254203800535441544520410B
:1029FA00424F525420390053544154452041424FCA
:102A0A0052542031300053544154452041424F52D0
:102A1A00542031310053544154452041424F5254BD
:102A2A002031320054484520454E4400545031323A
:102A3A00005450313900545032310054503232006F
:102A4A005450323500545032360054503335005405
:102A5A00503338004E4F4E450053575F4C315F4953
:102A6A004E0053575F4C325F494E0053575F474EF3
:102A7A00445F494E0053575F5354414B5F4C3100FA
:102A8A0053575F5354414B5F4C320053575F4C319D
:102A9A005F4C4C0053575F4C315F484C0053575FB3
:102AAA004C325F4C4C0053575F4C325F484C0053DA
:102ABA00575F53544154455F420053575F53544143
:102ACA0054455F410053575F44494F4445005450B1
:102ADA0032390054503330005450340054503500C9
:00000001FF
